{
  "contractName": "APIConsumer",
  "abi": [
    {
      "inputs": [],
      "stateMutability": "nonpayable",
      "type": "constructor"
    },
    {
      "anonymous": false,
      "inputs": [
        {
          "indexed": true,
          "internalType": "bytes32",
          "name": "id",
          "type": "bytes32"
        }
      ],
      "name": "ChainlinkCancelled",
      "type": "event"
    },
    {
      "anonymous": false,
      "inputs": [
        {
          "indexed": true,
          "internalType": "bytes32",
          "name": "id",
          "type": "bytes32"
        }
      ],
      "name": "ChainlinkFulfilled",
      "type": "event"
    },
    {
      "anonymous": false,
      "inputs": [
        {
          "indexed": true,
          "internalType": "bytes32",
          "name": "id",
          "type": "bytes32"
        }
      ],
      "name": "ChainlinkRequested",
      "type": "event"
    },
    {
      "inputs": [],
      "name": "volume",
      "outputs": [
        {
          "internalType": "uint256",
          "name": "",
          "type": "uint256"
        }
      ],
      "stateMutability": "view",
      "type": "function"
    },
    {
      "inputs": [],
      "name": "requestVolumeData",
      "outputs": [
        {
          "internalType": "bytes32",
          "name": "requestId",
          "type": "bytes32"
        }
      ],
      "stateMutability": "nonpayable",
      "type": "function"
    },
    {
      "inputs": [
        {
          "internalType": "bytes32",
          "name": "_requestId",
          "type": "bytes32"
        },
        {
          "internalType": "uint256",
          "name": "_volume",
          "type": "uint256"
        }
      ],
      "name": "fulfill",
      "outputs": [],
      "stateMutability": "nonpayable",
      "type": "function"
    }
  ],
  "bytecode": "0x6080604052600160045534801561001557600080fd5b5061001e610079565b600780546001600160a01b03191673c57b33452b4f7bb189bb5afae9cc4aba1f7a4fd81790557f643532373064316333313139343164306230386265616432316665613737343760085567016345785d8a0000600955610146565b61011473c89bd4e1632d3a43cb03aaad5262cbe4038bc5716001600160a01b03166338cc48316040518163ffffffff1660e01b8152600401602060405180830381865afa1580156100ce573d6000803e3d6000fd5b505050506040513d601f19601f820116820180604052508101906100f29190610116565b600280546001600160a01b0319166001600160a01b0392909216919091179055565b565b60006020828403121561012857600080fd5b81516001600160a01b038116811461013f57600080fd5b9392505050565b610d5f806101556000396000f3fe608060405234801561001057600080fd5b50600436106100415760003560e01c80634357855e146100465780636021abac1461005b578063c618a1e414610075575b600080fd5b610059610054366004610a0b565b61007e565b005b610063610146565b60405190815260200160405180910390f35b61006360065481565b60008281526005602052604090205482906001600160a01b031633146100fc5760405162461bcd60e51b815260206004820152602860248201527f536f75726365206d75737420626520746865206f7261636c65206f6620746865604482015267081c995c5d595cdd60c21b60648201526084015b60405180910390fd5b60008181526005602052604080822080546001600160a01b03191690555182917f7cc135e0cebb02c3480ae5d74d377283180a2601f8f644edf7987b009316c63a91a25060065550565b60008061015d60085430634357855e60e01b610259565b905061019f6040518060400160405280600381526020016219d95d60ea1b815250604051806080016040528060498152602001610ce16049913983919061027e565b610205604051806040016040528060048152602001630e0c2e8d60e31b8152506040518060400160405280601881526020017f5241572c4554482c5553442c564f4c554d453234484f555200000000000000008152508361027e9092919063ffffffff16565b60408051808201909152600581526474696d657360d81b6020820152670de0b6b3a764000090610237908390836102a1565b600754600954610252916001600160a01b03169084906102bf565b9250505090565b6102616109d0565b6102696109d0565b61027581868686610352565b95945050505050565b608083015161028d9083610398565b608083015161029c9082610398565b505050565b60808301516102b09083610398565b608083015161029c90826103af565b6004546000906102d0816001610a43565b600455835160408086015160808701515191516000936320214ca360e11b936103089386938493923092918a91600191602401610aa8565b60408051601f198184030181529190526020810180516001600160e01b03166001600160e01b031990931692909217909152905061034886838684610413565b9695505050505050565b61035a6109d0565b61036a8560800151610100610571565b50508284526001600160a01b03821660208501526001600160e01b031981166040850152835b949350505050565b6103a582600383516105dc565b61029c82826106f1565b67ffffffffffffffff198112156103ce576103ca828261071f565b5050565b67ffffffffffffffff8113156103e8576103ca8282610761565b600081126103fc576103ca826000836105dc565b6103ca82600161040e84600019610b10565b6105dc565b6040516bffffffffffffffffffffffff193060601b1660208201526034810184905260009060540160408051808303601f1901815282825280516020918201206000818152600590925291812080546001600160a01b0319166001600160a01b038a1617905590925082917fb5e6e01e79f91267dc17b4e6314d5d4d03593d2ceee0fbb452b750bd70ea5af99190a2600254604051630200057560e51b81526001600160a01b0390911690634000aea0906104d690889087908790600401610b4f565b6020604051808303816000875af11580156104f5573d6000803e3d6000fd5b505050506040513d601f19601f820116820180604052508101906105199190610b76565b6103905760405162461bcd60e51b815260206004820152602360248201527f756e61626c6520746f207472616e73666572416e6443616c6c20746f206f7261604482015262636c6560e81b60648201526084016100f3565b604080518082019091526060815260006020820152610591602083610b98565b156105b9576105a1602083610b98565b6105ac906020610bba565b6105b69083610a43565b91505b506020808301829052604080518085526000815283019091019052815b92915050565b60178167ffffffffffffffff1611610607576106018360e0600585901b168317610784565b50505050565b60ff8167ffffffffffffffff16116106455761062e836018611fe0600586901b1617610784565b506106018367ffffffffffffffff831660016107a9565b61ffff8167ffffffffffffffff16116106845761066d836019611fe0600586901b1617610784565b506106018367ffffffffffffffff831660026107a9565b63ffffffff8167ffffffffffffffff16116106c5576106ae83601a611fe0600586901b1617610784565b506106018367ffffffffffffffff831660046107a9565b6106da83601b611fe0600586901b1617610784565b506106018367ffffffffffffffff831660086107a9565b604080518082019091526060815260006020820152610718838460000151518485516107cf565b9392505050565b61072a8260c3610784565b506103ca8261073b83600019610b10565b60405160200161074d91815260200190565b6040516020818303038152906040526108b9565b61076c8260c2610784565b506103ca828260405160200161074d91815260200190565b60408051808201909152606081526000602082015261071883846000015151846108c6565b604080518082019091526060815260006020820152610390848560000151518585610921565b60408051808201909152606081526000602082015282518211156107f257600080fd5b60208501516108018386610a43565b111561083457610834856108248760200151878661081f9190610a43565b6109a2565b61082f906002610bd1565b6109b9565b6000808651805187602083010193508088870111156108535787860182525b505050602084015b602084106108935780518252610872602083610a43565b915061087f602082610a43565b905061088c602085610bba565b935061085b565b51815160001960208690036101000a019081169019919091161790525083949350505050565b6103a582600283516105dc565b604080518082019091526060815260006020820152836020015183106108fb576108fb848560200151600261082f9190610bd1565b8351805160208583010184815350808503610917576001810182525b5093949350505050565b60408051808201909152606081526000602082015260208501516109458584610a43565b111561095957610959856108248685610a43565b6000600161096984610100610cd4565b6109739190610bba565b90508551838682010185831982511617815250805184870111156109975783860181525b509495945050505050565b6000818311156109b35750816105d6565b50919050565b81516109c58383610571565b5061060183826106f1565b6040805160a0810182526000808252602080830182905282840182905260608084018390528451808601909552845283015290608082015290565b60008060408385031215610a1e57600080fd5b50508035926020909101359150565b634e487b7160e01b600052601160045260246000fd5b60008219821115610a5657610a56610a2d565b500190565b6000815180845260005b81811015610a8157602081850181015186830182015201610a65565b81811115610a93576000602083870101525b50601f01601f19169290920160200192915050565b6001600160a01b0389811682526020820189905260408201889052861660608201526001600160e01b03198516608082015260a0810184905260c0810183905261010060e08201819052600090610b0183820185610a5b565b9b9a5050505050505050505050565b60008083128015600160ff1b850184121615610b2e57610b2e610a2d565b6001600160ff1b0384018313811615610b4957610b49610a2d565b50500390565b60018060a01b03841681528260208201526060604082015260006102756060830184610a5b565b600060208284031215610b8857600080fd5b8151801515811461071857600080fd5b600082610bb557634e487b7160e01b600052601260045260246000fd5b500690565b600082821015610bcc57610bcc610a2d565b500390565b6000816000190483118215151615610beb57610beb610a2d565b500290565b600181815b80851115610c2b578160001904821115610c1157610c11610a2d565b80851615610c1e57918102915b93841c9390800290610bf5565b509250929050565b600082610c42575060016105d6565b81610c4f575060006105d6565b8160018114610c655760028114610c6f57610c8b565b60019150506105d6565b60ff841115610c8057610c80610a2d565b50506001821b6105d6565b5060208310610133831016604e8410600b8410161715610cae575081810a6105d6565b610cb88383610bf0565b8060001904821115610ccc57610ccc610a2d565b029392505050565b60006107188383610c3356fe68747470733a2f2f6d696e2d6170692e63727970746f636f6d706172652e636f6d2f646174612f70726963656d756c746966756c6c3f6673796d733d455448267473796d733d555344a26469706673582212209161c9b38be61317d4225fda70965e56bdab5bf42639dd05d475bb49eefb294264736f6c634300080d0033",
  "immutableReferences": {},
  "source": "// SPDX-License-Identifier: MIT\npragma solidity ^0.8.7;\n\nimport \"@chainlink/contracts/src/v0.8/ChainlinkClient.sol\";\n\n/**\n * Request testnet LINK and ETH here: https://faucets.chain.link/\n * Find information on LINK Token Contracts and get the latest ETH and LINK faucets here: https://docs.chain.link/docs/link-token-contracts/\n */\n\n/**\n * THIS IS AN EXAMPLE CONTRACT WHICH USES HARDCODED VALUES FOR CLARITY.\n * PLEASE DO NOT USE THIS CODE IN PRODUCTION.\n */\ncontract APIConsumer is ChainlinkClient {\n    using Chainlink for Chainlink.Request;\n  \n    uint256 public volume;\n    \n    address private oracle;\n    bytes32 private jobId;\n    uint256 private fee;\n    \n    /**\n     * Network: Kovan\n     * Oracle: 0xc57B33452b4F7BB189bB5AfaE9cc4aBa1f7a4FD8 (Chainlink Devrel   \n     * Node)\n     * Job ID: d5270d1c311941d0b08bead21fea7747\n     * Fee: 0.1 LINK\n     */\n    constructor() {\n        setPublicChainlinkToken();\n        oracle = 0xc57B33452b4F7BB189bB5AfaE9cc4aBa1f7a4FD8;\n        jobId = \"d5270d1c311941d0b08bead21fea7747\";\n        fee = 0.1 * 10 ** 18; // (Varies by network and job)\n    }\n    \n    /**\n     * Create a Chainlink request to retrieve API response, find the target\n     * data, then multiply by 1000000000000000000 (to remove decimal places from data).\n     */\n    function requestVolumeData() public returns (bytes32 requestId) \n    {\n        Chainlink.Request memory request = buildChainlinkRequest(jobId, address(this), this.fulfill.selector);\n        \n        // Set the URL to perform the GET request on\n        request.add(\"get\", \"https://min-api.cryptocompare.com/data/pricemultifull?fsyms=ETH&tsyms=USD\");\n        \n        // Set the path to find the desired data in the API response, where the response format is:\n        // {\"RAW\":\n        //   {\"ETH\":\n        //    {\"USD\":\n        //     {\n        //      \"VOLUME24HOUR\": xxx.xxx,\n        //     }\n        //    }\n        //   }\n        //  }\n        // request.add(\"path\", \"RAW.ETH.USD.VOLUME24HOUR\"); // Chainlink nodes prior to 1.0.0 support this format\n        request.add(\"path\", \"RAW,ETH,USD,VOLUME24HOUR\"); // Chainlink nodes 1.0.0 and later support this format\n        \n        // Multiply the result by 1000000000000000000 to remove decimals\n        int timesAmount = 10**18;\n        request.addInt(\"times\", timesAmount);\n        \n        // Sends the request\n        return sendChainlinkRequestTo(oracle, request, fee);\n    }\n    \n    /**\n     * Receive the response in the form of uint256\n     */ \n    function fulfill(bytes32 _requestId, uint256 _volume) public recordChainlinkFulfillment(_requestId)\n    {\n        volume = _volume;\n    }\n\n    // function withdrawLink() external {} - Implement a withdraw function to avoid locking your LINK in the contract\n}\n",
  "sourcePath": "/Users/sunnypdater/Project/sunnypdater/DApps/contracts/APIConsumer.sol",
  "compiler": {
    "name": "solc",
    "version": "0.8.13+commit.abaa5c0e.Emscripten.clang"
  },
  "schemaVersion": "3.4.6",
  "updatedAt": "2022-04-20T07:12:00.630Z",
  "networkType": "ethereum",
  "devdoc": {
    "kind": "dev",
    "methods": {},
    "version": 1
  },
  "userdoc": {
    "kind": "user",
    "methods": {
      "constructor": {
        "notice": "Network: Kovan Oracle: 0xc57B33452b4F7BB189bB5AfaE9cc4aBa1f7a4FD8 (Chainlink Devrel    Node) Job ID: d5270d1c311941d0b08bead21fea7747 Fee: 0.1 LINK"
      },
      "fulfill(bytes32,uint256)": {
        "notice": "Receive the response in the form of uint256"
      },
      "requestVolumeData()": {
        "notice": "Create a Chainlink request to retrieve API response, find the target data, then multiply by 1000000000000000000 (to remove decimal places from data)."
      }
    },
    "notice": "THIS IS AN EXAMPLE CONTRACT WHICH USES HARDCODED VALUES FOR CLARITY. PLEASE DO NOT USE THIS CODE IN PRODUCTION.",
    "version": 1
  }
}