{
  "contractName": "StakingNewsRewardsV2",
  "abi": [
    {
      "inputs": [
        {
          "internalType": "address",
          "name": "_stakingToken",
          "type": "address"
        },
        {
          "internalType": "address",
          "name": "_rewardsToken",
          "type": "address"
        }
      ],
      "stateMutability": "nonpayable",
      "type": "constructor"
    },
    {
      "inputs": [
        {
          "internalType": "address",
          "name": "",
          "type": "address"
        }
      ],
      "name": "_balances",
      "outputs": [
        {
          "internalType": "uint256",
          "name": "",
          "type": "uint256"
        }
      ],
      "stateMutability": "view",
      "type": "function",
      "constant": true
    },
    {
      "inputs": [
        {
          "internalType": "address",
          "name": "",
          "type": "address"
        },
        {
          "internalType": "address",
          "name": "",
          "type": "address"
        }
      ],
      "name": "_balancesSheet",
      "outputs": [
        {
          "internalType": "uint256",
          "name": "",
          "type": "uint256"
        }
      ],
      "stateMutability": "view",
      "type": "function",
      "constant": true
    },
    {
      "inputs": [],
      "name": "_totalReward",
      "outputs": [
        {
          "internalType": "uint256",
          "name": "",
          "type": "uint256"
        }
      ],
      "stateMutability": "view",
      "type": "function",
      "constant": true
    },
    {
      "inputs": [
        {
          "internalType": "address",
          "name": "",
          "type": "address"
        }
      ],
      "name": "_totalSheetSupply",
      "outputs": [
        {
          "internalType": "uint256",
          "name": "",
          "type": "uint256"
        }
      ],
      "stateMutability": "view",
      "type": "function",
      "constant": true
    },
    {
      "inputs": [],
      "name": "_totalSupply",
      "outputs": [
        {
          "internalType": "uint256",
          "name": "",
          "type": "uint256"
        }
      ],
      "stateMutability": "view",
      "type": "function",
      "constant": true
    },
    {
      "inputs": [],
      "name": "lastUpdateTime",
      "outputs": [
        {
          "internalType": "uint256",
          "name": "",
          "type": "uint256"
        }
      ],
      "stateMutability": "view",
      "type": "function",
      "constant": true
    },
    {
      "inputs": [],
      "name": "rewardPerTokenStored",
      "outputs": [
        {
          "internalType": "uint256",
          "name": "",
          "type": "uint256"
        }
      ],
      "stateMutability": "view",
      "type": "function",
      "constant": true
    },
    {
      "inputs": [],
      "name": "rewardRate",
      "outputs": [
        {
          "internalType": "uint256",
          "name": "",
          "type": "uint256"
        }
      ],
      "stateMutability": "view",
      "type": "function",
      "constant": true
    },
    {
      "inputs": [
        {
          "internalType": "address",
          "name": "",
          "type": "address"
        }
      ],
      "name": "rewards",
      "outputs": [
        {
          "internalType": "uint256",
          "name": "",
          "type": "uint256"
        }
      ],
      "stateMutability": "view",
      "type": "function",
      "constant": true
    },
    {
      "inputs": [],
      "name": "rewardsToken",
      "outputs": [
        {
          "internalType": "contract IERC20",
          "name": "",
          "type": "address"
        }
      ],
      "stateMutability": "view",
      "type": "function",
      "constant": true
    },
    {
      "inputs": [
        {
          "internalType": "address",
          "name": "",
          "type": "address"
        },
        {
          "internalType": "address",
          "name": "",
          "type": "address"
        }
      ],
      "name": "sheetLastUpdateTime",
      "outputs": [
        {
          "internalType": "uint256",
          "name": "",
          "type": "uint256"
        }
      ],
      "stateMutability": "view",
      "type": "function",
      "constant": true
    },
    {
      "inputs": [
        {
          "internalType": "address",
          "name": "",
          "type": "address"
        }
      ],
      "name": "sheetRewardPerTokenStored",
      "outputs": [
        {
          "internalType": "uint256",
          "name": "",
          "type": "uint256"
        }
      ],
      "stateMutability": "view",
      "type": "function",
      "constant": true
    },
    {
      "inputs": [
        {
          "internalType": "address",
          "name": "",
          "type": "address"
        }
      ],
      "name": "sheetRewardPooling",
      "outputs": [
        {
          "internalType": "uint256",
          "name": "",
          "type": "uint256"
        }
      ],
      "stateMutability": "view",
      "type": "function",
      "constant": true
    },
    {
      "inputs": [
        {
          "internalType": "address",
          "name": "",
          "type": "address"
        },
        {
          "internalType": "address",
          "name": "",
          "type": "address"
        }
      ],
      "name": "sheetRewards",
      "outputs": [
        {
          "internalType": "uint256",
          "name": "",
          "type": "uint256"
        }
      ],
      "stateMutability": "view",
      "type": "function",
      "constant": true
    },
    {
      "inputs": [],
      "name": "stakingToken",
      "outputs": [
        {
          "internalType": "contract IERC20",
          "name": "",
          "type": "address"
        }
      ],
      "stateMutability": "view",
      "type": "function",
      "constant": true
    },
    {
      "inputs": [
        {
          "internalType": "address",
          "name": "",
          "type": "address"
        }
      ],
      "name": "userRewardPerTokenPaid",
      "outputs": [
        {
          "internalType": "uint256",
          "name": "",
          "type": "uint256"
        }
      ],
      "stateMutability": "view",
      "type": "function",
      "constant": true
    },
    {
      "inputs": [
        {
          "internalType": "address",
          "name": "",
          "type": "address"
        },
        {
          "internalType": "address",
          "name": "",
          "type": "address"
        }
      ],
      "name": "userSheetRewardPerTokenPaid",
      "outputs": [
        {
          "internalType": "uint256",
          "name": "",
          "type": "uint256"
        }
      ],
      "stateMutability": "view",
      "type": "function",
      "constant": true
    },
    {
      "inputs": [
        {
          "internalType": "address",
          "name": "account",
          "type": "address"
        },
        {
          "internalType": "address",
          "name": "sheet",
          "type": "address"
        }
      ],
      "name": "sheetEarnedX",
      "outputs": [
        {
          "internalType": "uint256",
          "name": "",
          "type": "uint256"
        }
      ],
      "stateMutability": "view",
      "type": "function",
      "constant": true
    },
    {
      "inputs": [
        {
          "internalType": "address",
          "name": "sheet",
          "type": "address"
        },
        {
          "internalType": "uint256",
          "name": "_amount",
          "type": "uint256"
        }
      ],
      "name": "stakeSheet",
      "outputs": [],
      "stateMutability": "nonpayable",
      "type": "function"
    },
    {
      "inputs": [
        {
          "internalType": "address",
          "name": "sheet",
          "type": "address"
        },
        {
          "internalType": "uint256",
          "name": "_amount",
          "type": "uint256"
        }
      ],
      "name": "withdrawSheet",
      "outputs": [],
      "stateMutability": "nonpayable",
      "type": "function"
    },
    {
      "inputs": [
        {
          "internalType": "address",
          "name": "sheet",
          "type": "address"
        }
      ],
      "name": "getRewardSheet",
      "outputs": [],
      "stateMutability": "nonpayable",
      "type": "function"
    },
    {
      "inputs": [
        {
          "internalType": "address",
          "name": "sheet",
          "type": "address"
        },
        {
          "internalType": "uint256",
          "name": "_amount",
          "type": "uint256"
        }
      ],
      "name": "setSupply",
      "outputs": [],
      "stateMutability": "nonpayable",
      "type": "function"
    },
    {
      "inputs": [],
      "name": "totalSupply",
      "outputs": [
        {
          "internalType": "uint256",
          "name": "",
          "type": "uint256"
        }
      ],
      "stateMutability": "view",
      "type": "function",
      "constant": true
    },
    {
      "inputs": [],
      "name": "balanceStakeOf",
      "outputs": [
        {
          "internalType": "uint256",
          "name": "",
          "type": "uint256"
        }
      ],
      "stateMutability": "view",
      "type": "function",
      "constant": true
    },
    {
      "inputs": [
        {
          "internalType": "address",
          "name": "sheet",
          "type": "address"
        }
      ],
      "name": "RewardPooling",
      "outputs": [
        {
          "internalType": "uint256",
          "name": "",
          "type": "uint256"
        }
      ],
      "stateMutability": "view",
      "type": "function",
      "constant": true
    },
    {
      "inputs": [
        {
          "internalType": "address",
          "name": "sheet",
          "type": "address"
        }
      ],
      "name": "totalSupplySheet",
      "outputs": [
        {
          "internalType": "uint256",
          "name": "",
          "type": "uint256"
        }
      ],
      "stateMutability": "view",
      "type": "function",
      "constant": true
    },
    {
      "inputs": [
        {
          "internalType": "address",
          "name": "sheet",
          "type": "address"
        }
      ],
      "name": "balanceStakeOfSheet",
      "outputs": [
        {
          "internalType": "uint256",
          "name": "",
          "type": "uint256"
        }
      ],
      "stateMutability": "view",
      "type": "function",
      "constant": true
    },
    {
      "inputs": [
        {
          "internalType": "address",
          "name": "sheet",
          "type": "address"
        }
      ],
      "name": "rewardSheet",
      "outputs": [
        {
          "internalType": "uint256",
          "name": "",
          "type": "uint256"
        }
      ],
      "stateMutability": "view",
      "type": "function",
      "constant": true
    },
    {
      "inputs": [
        {
          "internalType": "address",
          "name": "sheet",
          "type": "address"
        }
      ],
      "name": "rewardPooling",
      "outputs": [
        {
          "internalType": "uint256",
          "name": "",
          "type": "uint256"
        }
      ],
      "stateMutability": "view",
      "type": "function",
      "constant": true
    },
    {
      "inputs": [
        {
          "internalType": "address",
          "name": "sheet",
          "type": "address"
        }
      ],
      "name": "TimeSpending",
      "outputs": [
        {
          "internalType": "uint256",
          "name": "",
          "type": "uint256"
        }
      ],
      "stateMutability": "view",
      "type": "function",
      "constant": true
    },
    {
      "inputs": [],
      "name": "TimeNow",
      "outputs": [
        {
          "internalType": "uint256",
          "name": "",
          "type": "uint256"
        }
      ],
      "stateMutability": "view",
      "type": "function",
      "constant": true
    }
  ],
  "bytecode": "0x6080604052606460025534801561001557600080fd5b50604051610cd1380380610cd183398101604081905261003491610081565b600180546001600160a01b039384166001600160a01b031991821617909155600080549290931691161790556100b4565b80516001600160a01b038116811461007c57600080fd5b919050565b6000806040838503121561009457600080fd5b61009d83610065565b91506100ab60208401610065565b90509250929050565b610c0e806100c36000396000f3fe608060405234801561001057600080fd5b50600436106101e55760003560e01c80637b0a47ee1161010f578063b01132c3116100a2578063c9eed85111610071578063c9eed85114610508578063cbdc3d3f1461051d578063d1af0c7d14610530578063df136d651461054357600080fd5b8063b01132c3146104bb578063b4d8cedc146104e6578063b597842a146104f9578063c8f33c91146104ff57600080fd5b80639749fcc4116100de5780639749fcc41461040f578063a33e79b714610445578063a44bf16e14610470578063af714e461461049b57600080fd5b80637b0a47ee1461039d5780637bcac520146103a6578063881dccf7146103c65780638b876347146103ef57600080fd5b806344fed72d116101875780636cb8606e116101565780636cb8606e1461032c5780636ebcf6071461033f57806370b966db1461035f57806372f702f31461037257600080fd5b806344fed72d146102ee5780634cffcc69146102bc5780635729d04e14610303578063666dc7281461030c57600080fd5b8063214789cd116101c3578063214789cd1461025057806325872243146102865780632f35f723146102bc5780633eaaf86b146102e557600080fd5b80630700037d146101ea5780630c1bd71e1461021d57806318160ddd14610248575b600080fd5b61020a6101f8366004610ab1565b600a6020526000908152604090205481565b6040519081526020015b60405180910390f35b61020a61022b366004610acc565b601060209081526000928352604080842090915290825290205481565b600c5461020a565b61020a61025e366004610ab1565b336000908152600b602090815260408083206001600160a01b03949094168352929052205490565b61020a610294366004610ab1565b3360009081526010602090815260408083206001600160a01b03949094168352929052205490565b61020a6102ca366004610ab1565b6001600160a01b031660009081526007602052604090205490565b61020a600c5481565b6103016102fc366004610aff565b61054c565b005b61020a600d5481565b61020a61031a366004610ab1565b60066020526000908152604090205481565b61030161033a366004610aff565b6106df565b61020a61034d366004610ab1565b600f6020526000908152604090205481565b61030161036d366004610ab1565b610809565b600154610385906001600160a01b031681565b6040516001600160a01b039091168152602001610214565b61020a60025481565b61020a6103b4366004610ab1565b600e6020526000908152604090205481565b61020a6103d4366004610ab1565b6001600160a01b03166000908152600e602052604090205490565b61020a6103fd366004610ab1565b60086020526000908152604090205481565b61020a61041d366004610ab1565b3360009081526005602090815260408083206001600160a01b03949094168352929052205490565b61020a610453366004610acc565b600960209081526000928352604080842090915290825290205481565b61020a61047e366004610acc565b600560209081526000928352604080842090915290825290205481565b61020a6104a9366004610ab1565b60076020526000908152604090205481565b61020a6104c9366004610acc565b600b60209081526000928352604080842090915290825290205481565b6103016104f4366004610aff565b6108dd565b4261020a565b61020a60035481565b336000908152600f602052604090205461020a565b61020a61052b366004610acc565b61098a565b600054610385906001600160a01b031681565b61020a60045481565b80600c600082825461055e9190610b3f565b90915550506001600160a01b0382166000908152600e60205260408120805483929061058b908490610b3f565b9091555050336000908152600f6020526040812080548392906105af908490610b3f565b90915550503360009081526010602090815260408083206001600160a01b0386168452909152812080548392906105e7908490610b3f565b909155505060015460405163095ea7b360e01b81526001600160a01b038481166004830152602482018490529091169063095ea7b3906044016020604051808303816000875af115801561063f573d6000803e3d6000fd5b505050506040513d601f19601f820116820180604052508101906106639190610b56565b5060015460405163a9059cbb60e01b8152336004820152602481018390526001600160a01b039091169063a9059cbb906044015b6020604051808303816000875af11580156106b6573d6000803e3d6000fd5b505050506040513d601f19601f820116820180604052508101906106da9190610b56565b505050565b80600c60008282546106f19190610b7f565b9091555050336000908152600f602052604081208054839290610715908490610b7f565b90915550506001600160a01b0382166000908152600e602052604081208054839290610742908490610b7f565b90915550503360009081526010602090815260408083206001600160a01b03861684529091528120805483929061077a908490610b7f565b90915550506001546040516323b872dd60e01b8152336004820152306024820152604481018390526001600160a01b03909116906323b872dd906064016020604051808303816000875af11580156107d6573d6000803e3d6000fd5b505050506040513d601f19601f820116820180604052508101906107fa9190610b56565b506108053383610a23565b5050565b336000908152600b602090815260408083206001600160a01b0385168452825280832054600e909252909120548111156108895760405162461bcd60e51b815260206004820152601c60248201527f52657761726420706f6f6c696e67206973206e6f7420456e6f75676800000000604482015260640160405180910390fd5b336000818152600b602090815260408083206001600160a01b03878116855292528083208390559154915163a9059cbb60e01b8152600481019390935260248301849052169063a9059cbb90604401610697565b6001546040516323b872dd60e01b8152336004820152306024820152604481018390526001600160a01b03909116906323b872dd906064016020604051808303816000875af1158015610934573d6000803e3d6000fd5b505050506040513d601f19601f820116820180604052508101906109589190610b56565b506001600160a01b03821660009081526007602052604081208054839290610981908490610b7f565b90915550505050565b6001600160a01b03811660009081526007602052604081205481036109b157506000610a1d565b6001600160a01b03808316600081815260076020908152604080832054600254958916845260058352818420948452939091529020549091906109f49042610b3f565b6109fe9190610b97565b610a1090670de0b6b3a7640000610b97565b610a1a9190610bb6565b90505b92915050565b610a2d828261098a565b6001600160a01b038084166000908152600b6020908152604080832093861683529290529081208054909190610a64908490610b7f565b90915550506001600160a01b0391821660009081526005602090815260408083209390941682529190915220429055565b80356001600160a01b0381168114610aac57600080fd5b919050565b600060208284031215610ac357600080fd5b610a1a82610a95565b60008060408385031215610adf57600080fd5b610ae883610a95565b9150610af660208401610a95565b90509250929050565b60008060408385031215610b1257600080fd5b610b1b83610a95565b946020939093013593505050565b634e487b7160e01b600052601160045260246000fd5b600082821015610b5157610b51610b29565b500390565b600060208284031215610b6857600080fd5b81518015158114610b7857600080fd5b9392505050565b60008219821115610b9257610b92610b29565b500190565b6000816000190483118215151615610bb157610bb1610b29565b500290565b600082610bd357634e487b7160e01b600052601260045260246000fd5b50049056fea264697066735822122067a9bd646349617401d90f31bcc3c38b8e9f360c92a21b6de7810e0ddc47eba064736f6c634300080d0033",
  "immutableReferences": {},
  "source": "// SPDX-License-Identifier: MIT\npragma solidity ^0.8;\n\nimport \"./IERC20.sol\";\n\ncontract StakingNewsRewardsV2 {\n    IERC20 public rewardsToken;\n    IERC20 public stakingToken;\n\n    uint public rewardRate = 100;\n    uint public lastUpdateTime;\n    uint public rewardPerTokenStored;\n    mapping(address => mapping(address => uint) ) public sheetLastUpdateTime;\n    mapping(address => uint) public sheetRewardPerTokenStored;\n    mapping(address => uint) public sheetRewardPooling;\n\n    mapping(address => uint) public userRewardPerTokenPaid;\n    mapping(address => mapping(address => uint) ) public userSheetRewardPerTokenPaid;\n\n    mapping(address => uint) public rewards;\n    mapping(address => mapping(address => uint) ) public sheetRewards;\n\n    uint public _totalSupply;\n    uint public _totalReward;\n\n    mapping(address => uint) public _totalSheetSupply;\n    mapping(address => uint) public _balances;\n    mapping(address => mapping(address => uint) ) public _balancesSheet;\n\n    constructor(address _stakingToken, address _rewardsToken) {\n        stakingToken = IERC20(_stakingToken);\n        rewardsToken = IERC20(_rewardsToken);\n    }\n\n    // ***************************************************************************\n    // ***************************************************************************\n    // ***************************************************************************\n\n    function _afterTokenTransfer(\n        address account,\n        address sheet\n    ) internal {\n\n        sheetRewards[account][sheet] += sheetEarnedX(account, sheet);\n        // userSheetRewardPerTokenPaid[account][sheet] = sheetRewardPerTokenStored[sheet];\n        sheetLastUpdateTime[account][sheet] = block.timestamp;\n\n    }\n\n    // ***************************************************************************\n    // ***************************************************************************\n    // ***************************************************************************\n\n    function sheetEarnedX(address account, address sheet) public view returns (uint) {\n\n        if (sheetRewardPooling[sheet] == 0) {\n            return 0;\n        }\n        return ((block.timestamp - sheetLastUpdateTime[account][sheet]) * rewardRate * 1e18) / sheetRewardPooling[sheet];\n\n    }\n\n    // ***************************************************************************\n    // ***************************************************************************\n    // ***************************************************************************\n    \n    function stakeSheet(address sheet, uint _amount) external {\n        _totalSupply += _amount;\n        _balances[msg.sender] += _amount;\n        _totalSheetSupply[sheet] += _amount;\n        _balancesSheet[msg.sender][sheet] += _amount;\n\n        // stakingToken.transferFrom(msg.sender, sheet, _amount);\n        stakingToken.transferFrom(msg.sender, address(this), _amount);\n\n        _afterTokenTransfer(msg.sender, sheet);\n        \n    }\n\n    function withdrawSheet(address sheet, uint _amount) external {\n        _totalSupply -= _amount;\n        _totalSheetSupply[sheet] -= _amount;\n        _balances[msg.sender] -= _amount;\n        _balancesSheet[msg.sender][sheet] -= _amount;\n\n        stakingToken.approve(sheet, _amount);\n        // stakingToken.transferFrom(sheet, msg.sender, _amount);\n        stakingToken.transfer(msg.sender, _amount);\n\n    }\n\n    function getRewardSheet(address sheet) external {\n        // uint reward = rewards[msg.sender];\n        // rewardsToken.transfer(msg.sender, reward);\n\n        uint reward = sheetRewards[msg.sender][sheet];\n        require(_totalSheetSupply[sheet] >= reward, \"Reward pooling is not Enough\");\n        sheetRewards[msg.sender][sheet] = 0;\n        // rewardsToken.transferFrom(sheet, msg.sender, reward);\n        \n        rewardsToken.transfer(msg.sender, reward);\n\n    }\n\n    // ***************************************************************************\n    // ***************************************************************************\n    // ***************************************************************************\n\n    function setSupply(address sheet, uint _amount) external {\n\n        stakingToken.transferFrom(msg.sender, address(this), _amount);\n        sheetRewardPooling[sheet] += _amount ;\n\n    }\n\n    // ***************************************************************************\n    // ***************************************************************************\n    // ***************************************************************************\n\n    function totalSupply()\n        public\n        view\n        returns (uint256)\n    {\n        return _totalSupply;\n    }\n\n    function balanceStakeOf()\n        public\n        view\n        returns (uint256)\n    {\n        return _balances[msg.sender];\n    }\n\n    function RewardPooling(address sheet)\n        public\n        view\n        returns (uint256)\n    {\n        return sheetRewardPooling[sheet];\n    }\n\n    function totalSupplySheet(address sheet)\n        public\n        view\n        returns (uint256)\n    {\n        return _totalSheetSupply[sheet];\n    }\n\n    function balanceStakeOfSheet(address sheet)\n        public\n        view\n        returns (uint256)\n    {\n        return _balancesSheet[msg.sender][sheet];\n    }\n\n    function rewardSheet(address sheet)\n        public\n        view\n        returns (uint256) \n    {\n        return sheetRewards[msg.sender][sheet];\n    }\n\n    function rewardPooling(address sheet)\n        public\n        view\n        returns (uint256) \n    {\n        return sheetRewardPooling[sheet];\n    }\n\n    function TimeSpending(address sheet)\n        public\n        view\n        returns (uint256) \n    {\n        return sheetLastUpdateTime[msg.sender][sheet];\n    }\n\n    function TimeNow()\n        public\n        view\n        returns (uint256) \n    {\n        return block.timestamp;\n    }\n\n}",
  "sourcePath": "/Users/sunnypdater/Project/sunnypdater/DApps/contracts/stakingNewsRewardV2.sol",
  "compiler": {
    "name": "solc",
    "version": "0.8.13+commit.abaa5c0e.Emscripten.clang"
  },
  "schemaVersion": "3.4.6",
  "updatedAt": "2022-05-12T17:02:19.523Z",
  "networkType": "ethereum",
  "devdoc": {
    "kind": "dev",
    "methods": {},
    "version": 1
  },
  "userdoc": {
    "kind": "user",
    "methods": {},
    "version": 1
  }
}