{
  "contractName": "StakingRewards",
  "abi": [
    {
      "inputs": [
        {
          "internalType": "address",
          "name": "_stakingToken",
          "type": "address"
        },
        {
          "internalType": "address",
          "name": "_rewardsToken",
          "type": "address"
        }
      ],
      "stateMutability": "nonpayable",
      "type": "constructor"
    },
    {
      "inputs": [
        {
          "internalType": "address",
          "name": "",
          "type": "address"
        }
      ],
      "name": "_balances",
      "outputs": [
        {
          "internalType": "uint256",
          "name": "",
          "type": "uint256"
        }
      ],
      "stateMutability": "view",
      "type": "function",
      "constant": true
    },
    {
      "inputs": [],
      "name": "_totalSupply",
      "outputs": [
        {
          "internalType": "uint256",
          "name": "",
          "type": "uint256"
        }
      ],
      "stateMutability": "view",
      "type": "function",
      "constant": true
    },
    {
      "inputs": [],
      "name": "lastUpdateTime",
      "outputs": [
        {
          "internalType": "uint256",
          "name": "",
          "type": "uint256"
        }
      ],
      "stateMutability": "view",
      "type": "function",
      "constant": true
    },
    {
      "inputs": [],
      "name": "rewardPerTokenStored",
      "outputs": [
        {
          "internalType": "uint256",
          "name": "",
          "type": "uint256"
        }
      ],
      "stateMutability": "view",
      "type": "function",
      "constant": true
    },
    {
      "inputs": [],
      "name": "rewardRate",
      "outputs": [
        {
          "internalType": "uint256",
          "name": "",
          "type": "uint256"
        }
      ],
      "stateMutability": "view",
      "type": "function",
      "constant": true
    },
    {
      "inputs": [
        {
          "internalType": "address",
          "name": "",
          "type": "address"
        }
      ],
      "name": "rewards",
      "outputs": [
        {
          "internalType": "uint256",
          "name": "",
          "type": "uint256"
        }
      ],
      "stateMutability": "view",
      "type": "function",
      "constant": true
    },
    {
      "inputs": [],
      "name": "rewardsToken",
      "outputs": [
        {
          "internalType": "contract IERC20",
          "name": "",
          "type": "address"
        }
      ],
      "stateMutability": "view",
      "type": "function",
      "constant": true
    },
    {
      "inputs": [],
      "name": "stakingToken",
      "outputs": [
        {
          "internalType": "contract IERC20",
          "name": "",
          "type": "address"
        }
      ],
      "stateMutability": "view",
      "type": "function",
      "constant": true
    },
    {
      "inputs": [
        {
          "internalType": "address",
          "name": "",
          "type": "address"
        }
      ],
      "name": "userRewardPerTokenPaid",
      "outputs": [
        {
          "internalType": "uint256",
          "name": "",
          "type": "uint256"
        }
      ],
      "stateMutability": "view",
      "type": "function",
      "constant": true
    },
    {
      "inputs": [],
      "name": "rewardPerToken",
      "outputs": [
        {
          "internalType": "uint256",
          "name": "",
          "type": "uint256"
        }
      ],
      "stateMutability": "view",
      "type": "function",
      "constant": true
    },
    {
      "inputs": [
        {
          "internalType": "address",
          "name": "account",
          "type": "address"
        }
      ],
      "name": "earned",
      "outputs": [
        {
          "internalType": "uint256",
          "name": "",
          "type": "uint256"
        }
      ],
      "stateMutability": "view",
      "type": "function",
      "constant": true
    },
    {
      "inputs": [],
      "name": "totalSupply",
      "outputs": [
        {
          "internalType": "uint256",
          "name": "",
          "type": "uint256"
        }
      ],
      "stateMutability": "view",
      "type": "function",
      "constant": true
    },
    {
      "inputs": [],
      "name": "balanceStakeOf",
      "outputs": [
        {
          "internalType": "uint256",
          "name": "",
          "type": "uint256"
        }
      ],
      "stateMutability": "view",
      "type": "function",
      "constant": true
    },
    {
      "inputs": [
        {
          "internalType": "uint256",
          "name": "_amount",
          "type": "uint256"
        }
      ],
      "name": "stake",
      "outputs": [],
      "stateMutability": "nonpayable",
      "type": "function"
    },
    {
      "inputs": [
        {
          "internalType": "uint256",
          "name": "_amount",
          "type": "uint256"
        }
      ],
      "name": "withdraw",
      "outputs": [],
      "stateMutability": "nonpayable",
      "type": "function"
    },
    {
      "inputs": [],
      "name": "getReward",
      "outputs": [],
      "stateMutability": "nonpayable",
      "type": "function"
    }
  ],
  "bytecode": "0x6080604052606460025534801561001557600080fd5b5060405161074838038061074883398101604081905261003491610081565b600180546001600160a01b039384166001600160a01b031991821617909155600080549290931691161790556100b4565b80516001600160a01b038116811461007c57600080fd5b919050565b6000806040838503121561009457600080fd5b61009d83610065565b91506100ab60208401610065565b90509250929050565b610685806100c36000396000f3fe608060405234801561001057600080fd5b50600436106100ff5760003560e01c80637b0a47ee11610097578063c9eed85111610066578063c9eed85114610208578063cd3daf9d1461021d578063d1af0c7d14610225578063df136d651461023857600080fd5b80637b0a47ee146101c35780638b876347146101cc578063a694fc3a146101ec578063c8f33c91146101ff57600080fd5b80633d18b912116100d35780633d18b912146101675780633eaaf86b1461016f5780636ebcf6071461017857806372f702f31461019857600080fd5b80628cc262146101045780630700037d1461012a57806318160ddd1461014a5780632e1a7d4d14610152575b600080fd5b61011761011236600461055e565b610241565b6040519081526020015b60405180910390f35b61011761013836600461055e565b60066020526000908152604090205481565b600754610117565b61016561016036600461058e565b6102be565b005b6101656103bb565b61011760075481565b61011761018636600461055e565b60086020526000908152604090205481565b6001546101ab906001600160a01b031681565b6040516001600160a01b039091168152602001610121565b61011760025481565b6101176101da36600461055e565b60056020526000908152604090205481565b6101656101fa36600461058e565b610441565b61011760035481565b33600090815260086020526040902054610117565b610117610500565b6000546101ab906001600160a01b031681565b61011760045481565b6001600160a01b0381166000908152600660209081526040808320546005909252822054670de0b6b3a764000090610277610500565b61028191906105bd565b6001600160a01b0385166000908152600860205260409020546102a491906105d4565b6102ae91906105f3565b6102b89190610615565b92915050565b336102c7610500565b600455426003556102d781610241565b6001600160a01b038216600090815260066020908152604080832093909355600454600590915291812091909155600780548492906103179084906105bd565b9091555050336000908152600860205260408120805484929061033b9084906105bd565b909155505060015460405163a9059cbb60e01b8152336004820152602481018490526001600160a01b039091169063a9059cbb906044015b6020604051808303816000875af1158015610392573d6000803e3d6000fd5b505050506040513d601f19601f820116820180604052508101906103b6919061062d565b505050565b336103c4610500565b600455426003556103d481610241565b6001600160a01b0382811660009081526006602081815260408084209590955560048054600583528685205533808552929091528483208054908490559254945163a9059cbb60e01b8152908101919091526024810182905290929091169063a9059cbb90604401610373565b3361044a610500565b6004554260035561045a81610241565b6001600160a01b0382166000908152600660209081526040808320939093556004546005909152918120919091556007805484929061049a908490610615565b909155505033600090815260086020526040812080548492906104be908490610615565b90915550506001546040516323b872dd60e01b8152336004820152306024820152604481018490526001600160a01b03909116906323b872dd90606401610373565b6000600754600003610513575060045490565b60075460025460035461052690426105bd565b61053091906105d4565b61054290670de0b6b3a76400006105d4565b61054c91906105f3565b6004546105599190610615565b905090565b60006020828403121561057057600080fd5b81356001600160a01b038116811461058757600080fd5b9392505050565b6000602082840312156105a057600080fd5b5035919050565b634e487b7160e01b600052601160045260246000fd5b6000828210156105cf576105cf6105a7565b500390565b60008160001904831182151516156105ee576105ee6105a7565b500290565b60008261061057634e487b7160e01b600052601260045260246000fd5b500490565b60008219821115610628576106286105a7565b500190565b60006020828403121561063f57600080fd5b8151801515811461058757600080fdfea26469706673582212209e7b89783c7bd08b0e08cdf22a8960db673b6acbc31ab6c7f21aa65bff51645a64736f6c634300080d0033",
  "immutableReferences": {},
  "source": "// SPDX-License-Identifier: MIT\npragma solidity ^0.8;\n\nimport \"./IERC20.sol\";\n\ncontract StakingRewards {\n    IERC20 public rewardsToken;\n    IERC20 public stakingToken;\n\n    uint public rewardRate = 100;\n    uint public lastUpdateTime;\n    uint public rewardPerTokenStored;\n\n    mapping(address => uint) public userRewardPerTokenPaid;\n    mapping(address => uint) public rewards;\n\n    uint public _totalSupply;\n    mapping(address => uint) public _balances;\n\n    constructor(address _stakingToken, address _rewardsToken) {\n        stakingToken = IERC20(_stakingToken);\n        rewardsToken = IERC20(_rewardsToken);\n    }\n\n    function rewardPerToken() public view returns (uint) {\n        if (_totalSupply == 0) {\n            return rewardPerTokenStored;\n        }\n        return\n            rewardPerTokenStored +\n            (((block.timestamp - lastUpdateTime) * rewardRate * 1e18) / _totalSupply);\n    }\n\n    function earned(address account) public view returns (uint) {\n        return\n            ((_balances[account] *\n                (rewardPerToken() - userRewardPerTokenPaid[account])) / 1e18) +\n            rewards[account];\n    }\n\n    function totalSupply()\n        public\n        view\n        returns (uint256)\n    {\n        return _totalSupply;\n    }\n\n    function balanceStakeOf()\n        public\n        view\n        returns (uint256)\n    {\n        return _balances[msg.sender];\n    }\n\n    modifier updateReward(address account) {\n        rewardPerTokenStored = rewardPerToken();\n        lastUpdateTime = block.timestamp;\n\n        rewards[account] = earned(account);\n        userRewardPerTokenPaid[account] = rewardPerTokenStored;\n        _;\n    }\n\n    function stake(uint _amount) external updateReward(msg.sender) {\n        _totalSupply += _amount;\n        _balances[msg.sender] += _amount;\n        stakingToken.transferFrom(msg.sender, address(this), _amount);\n    }\n\n    function withdraw(uint _amount) external updateReward(msg.sender) {\n        _totalSupply -= _amount;\n        _balances[msg.sender] -= _amount;\n        stakingToken.transfer(msg.sender, _amount);\n    }\n\n    function getReward() external updateReward(msg.sender) {\n        uint reward = rewards[msg.sender];\n        rewards[msg.sender] = 0;\n        rewardsToken.transfer(msg.sender, reward);\n    }\n}",
  "sourcePath": "/Users/sunnypdater/Project/sunnypdater/DApps/contracts/stakingReward.sol",
  "compiler": {
    "name": "solc",
    "version": "0.8.13+commit.abaa5c0e.Emscripten.clang"
  },
  "schemaVersion": "3.4.6",
  "updatedAt": "2022-05-12T16:59:13.788Z",
  "networkType": "ethereum",
  "devdoc": {
    "kind": "dev",
    "methods": {},
    "version": 1
  },
  "userdoc": {
    "kind": "user",
    "methods": {},
    "version": 1
  }
}