{
  "contractName": "StakingNewsRewards",
  "abi": [
    {
      "inputs": [
        {
          "internalType": "address",
          "name": "_stakingToken",
          "type": "address"
        },
        {
          "internalType": "address",
          "name": "_rewardsToken",
          "type": "address"
        }
      ],
      "stateMutability": "nonpayable",
      "type": "constructor"
    },
    {
      "inputs": [
        {
          "internalType": "address",
          "name": "",
          "type": "address"
        }
      ],
      "name": "_balances",
      "outputs": [
        {
          "internalType": "uint256",
          "name": "",
          "type": "uint256"
        }
      ],
      "stateMutability": "view",
      "type": "function",
      "constant": true
    },
    {
      "inputs": [
        {
          "internalType": "address",
          "name": "",
          "type": "address"
        },
        {
          "internalType": "address",
          "name": "",
          "type": "address"
        }
      ],
      "name": "_balancesSheet",
      "outputs": [
        {
          "internalType": "uint256",
          "name": "",
          "type": "uint256"
        }
      ],
      "stateMutability": "view",
      "type": "function",
      "constant": true
    },
    {
      "inputs": [],
      "name": "_totalReward",
      "outputs": [
        {
          "internalType": "uint256",
          "name": "",
          "type": "uint256"
        }
      ],
      "stateMutability": "view",
      "type": "function",
      "constant": true
    },
    {
      "inputs": [
        {
          "internalType": "address",
          "name": "",
          "type": "address"
        }
      ],
      "name": "_totalSheetSupply",
      "outputs": [
        {
          "internalType": "uint256",
          "name": "",
          "type": "uint256"
        }
      ],
      "stateMutability": "view",
      "type": "function",
      "constant": true
    },
    {
      "inputs": [],
      "name": "_totalSupply",
      "outputs": [
        {
          "internalType": "uint256",
          "name": "",
          "type": "uint256"
        }
      ],
      "stateMutability": "view",
      "type": "function",
      "constant": true
    },
    {
      "inputs": [],
      "name": "lastUpdateTime",
      "outputs": [
        {
          "internalType": "uint256",
          "name": "",
          "type": "uint256"
        }
      ],
      "stateMutability": "view",
      "type": "function",
      "constant": true
    },
    {
      "inputs": [],
      "name": "rewardPerTokenStored",
      "outputs": [
        {
          "internalType": "uint256",
          "name": "",
          "type": "uint256"
        }
      ],
      "stateMutability": "view",
      "type": "function",
      "constant": true
    },
    {
      "inputs": [],
      "name": "rewardRate",
      "outputs": [
        {
          "internalType": "uint256",
          "name": "",
          "type": "uint256"
        }
      ],
      "stateMutability": "view",
      "type": "function",
      "constant": true
    },
    {
      "inputs": [
        {
          "internalType": "address",
          "name": "",
          "type": "address"
        }
      ],
      "name": "rewards",
      "outputs": [
        {
          "internalType": "uint256",
          "name": "",
          "type": "uint256"
        }
      ],
      "stateMutability": "view",
      "type": "function",
      "constant": true
    },
    {
      "inputs": [],
      "name": "rewardsToken",
      "outputs": [
        {
          "internalType": "contract IERC20",
          "name": "",
          "type": "address"
        }
      ],
      "stateMutability": "view",
      "type": "function",
      "constant": true
    },
    {
      "inputs": [
        {
          "internalType": "address",
          "name": "",
          "type": "address"
        },
        {
          "internalType": "address",
          "name": "",
          "type": "address"
        }
      ],
      "name": "sheetLastUpdateTime",
      "outputs": [
        {
          "internalType": "uint256",
          "name": "",
          "type": "uint256"
        }
      ],
      "stateMutability": "view",
      "type": "function",
      "constant": true
    },
    {
      "inputs": [
        {
          "internalType": "address",
          "name": "",
          "type": "address"
        }
      ],
      "name": "sheetRewardPerTokenStored",
      "outputs": [
        {
          "internalType": "uint256",
          "name": "",
          "type": "uint256"
        }
      ],
      "stateMutability": "view",
      "type": "function",
      "constant": true
    },
    {
      "inputs": [
        {
          "internalType": "address",
          "name": "",
          "type": "address"
        },
        {
          "internalType": "address",
          "name": "",
          "type": "address"
        }
      ],
      "name": "sheetRewards",
      "outputs": [
        {
          "internalType": "uint256",
          "name": "",
          "type": "uint256"
        }
      ],
      "stateMutability": "view",
      "type": "function",
      "constant": true
    },
    {
      "inputs": [],
      "name": "stakingToken",
      "outputs": [
        {
          "internalType": "contract IERC20",
          "name": "",
          "type": "address"
        }
      ],
      "stateMutability": "view",
      "type": "function",
      "constant": true
    },
    {
      "inputs": [
        {
          "internalType": "address",
          "name": "",
          "type": "address"
        }
      ],
      "name": "userRewardPerTokenPaid",
      "outputs": [
        {
          "internalType": "uint256",
          "name": "",
          "type": "uint256"
        }
      ],
      "stateMutability": "view",
      "type": "function",
      "constant": true
    },
    {
      "inputs": [
        {
          "internalType": "address",
          "name": "",
          "type": "address"
        },
        {
          "internalType": "address",
          "name": "",
          "type": "address"
        }
      ],
      "name": "userSheetRewardPerTokenPaid",
      "outputs": [
        {
          "internalType": "uint256",
          "name": "",
          "type": "uint256"
        }
      ],
      "stateMutability": "view",
      "type": "function",
      "constant": true
    },
    {
      "inputs": [],
      "name": "rewardPerToken",
      "outputs": [
        {
          "internalType": "uint256",
          "name": "",
          "type": "uint256"
        }
      ],
      "stateMutability": "view",
      "type": "function",
      "constant": true
    },
    {
      "inputs": [
        {
          "internalType": "address",
          "name": "account",
          "type": "address"
        }
      ],
      "name": "earned",
      "outputs": [
        {
          "internalType": "uint256",
          "name": "",
          "type": "uint256"
        }
      ],
      "stateMutability": "view",
      "type": "function",
      "constant": true
    },
    {
      "inputs": [
        {
          "internalType": "address",
          "name": "account",
          "type": "address"
        },
        {
          "internalType": "address",
          "name": "sheet",
          "type": "address"
        }
      ],
      "name": "sheetRewardPerToken",
      "outputs": [
        {
          "internalType": "uint256",
          "name": "",
          "type": "uint256"
        }
      ],
      "stateMutability": "view",
      "type": "function",
      "constant": true
    },
    {
      "inputs": [
        {
          "internalType": "address",
          "name": "account",
          "type": "address"
        },
        {
          "internalType": "address",
          "name": "sheet",
          "type": "address"
        }
      ],
      "name": "sheetEarned",
      "outputs": [
        {
          "internalType": "uint256",
          "name": "",
          "type": "uint256"
        }
      ],
      "stateMutability": "view",
      "type": "function",
      "constant": true
    },
    {
      "inputs": [
        {
          "internalType": "address",
          "name": "sheet",
          "type": "address"
        },
        {
          "internalType": "uint256",
          "name": "_amount",
          "type": "uint256"
        }
      ],
      "name": "stakeSheet",
      "outputs": [],
      "stateMutability": "nonpayable",
      "type": "function"
    },
    {
      "inputs": [
        {
          "internalType": "address",
          "name": "sheet",
          "type": "address"
        },
        {
          "internalType": "uint256",
          "name": "_amount",
          "type": "uint256"
        }
      ],
      "name": "withdrawSheet",
      "outputs": [],
      "stateMutability": "nonpayable",
      "type": "function"
    },
    {
      "inputs": [
        {
          "internalType": "address",
          "name": "sheet",
          "type": "address"
        }
      ],
      "name": "getRewardSheet",
      "outputs": [],
      "stateMutability": "nonpayable",
      "type": "function"
    },
    {
      "inputs": [],
      "name": "totalSupply",
      "outputs": [
        {
          "internalType": "uint256",
          "name": "",
          "type": "uint256"
        }
      ],
      "stateMutability": "view",
      "type": "function",
      "constant": true
    },
    {
      "inputs": [],
      "name": "balanceStakeOf",
      "outputs": [
        {
          "internalType": "uint256",
          "name": "",
          "type": "uint256"
        }
      ],
      "stateMutability": "view",
      "type": "function",
      "constant": true
    },
    {
      "inputs": [
        {
          "internalType": "address",
          "name": "sheet",
          "type": "address"
        }
      ],
      "name": "totalSupplySheet",
      "outputs": [
        {
          "internalType": "uint256",
          "name": "",
          "type": "uint256"
        }
      ],
      "stateMutability": "view",
      "type": "function",
      "constant": true
    },
    {
      "inputs": [
        {
          "internalType": "address",
          "name": "sheet",
          "type": "address"
        }
      ],
      "name": "balanceStakeOfSheet",
      "outputs": [
        {
          "internalType": "uint256",
          "name": "",
          "type": "uint256"
        }
      ],
      "stateMutability": "view",
      "type": "function",
      "constant": true
    },
    {
      "inputs": [
        {
          "internalType": "address",
          "name": "sheet",
          "type": "address"
        }
      ],
      "name": "rewardSheet",
      "outputs": [
        {
          "internalType": "uint256",
          "name": "",
          "type": "uint256"
        }
      ],
      "stateMutability": "view",
      "type": "function",
      "constant": true
    },
    {
      "inputs": [
        {
          "internalType": "address",
          "name": "sheet",
          "type": "address"
        }
      ],
      "name": "TimeSpending",
      "outputs": [
        {
          "internalType": "uint256",
          "name": "",
          "type": "uint256"
        }
      ],
      "stateMutability": "view",
      "type": "function",
      "constant": true
    },
    {
      "inputs": [],
      "name": "TimeNow",
      "outputs": [
        {
          "internalType": "uint256",
          "name": "",
          "type": "uint256"
        }
      ],
      "stateMutability": "view",
      "type": "function",
      "constant": true
    }
  ],
  "bytecode": "0x6080604052606460025534801561001557600080fd5b50604051610f74380380610f7483398101604081905261003491610081565b600180546001600160a01b039384166001600160a01b031991821617909155600080549290931691161790556100b4565b80516001600160a01b038116811461007c57600080fd5b919050565b6000806040838503121561009457600080fd5b61009d83610065565b91506100ab60208401610065565b90509250929050565b610eb1806100c36000396000f3fe608060405234801561001057600080fd5b50600436106101d95760003560e01c80637b0a47ee11610104578063b01132c3116100a2578063c9eed85111610071578063c9eed851146104d9578063cd3daf9d146104ee578063d1af0c7d146104f6578063df136d651461050957600080fd5b8063b01132c31461048c578063b597842a146104b7578063c5b50eab146104bd578063c8f33c91146104d057600080fd5b80638b876347116100de5780638b876347146103e05780639749fcc414610400578063a33e79b714610436578063a44bf16e1461046157600080fd5b80637b0a47ee1461038e5780637bcac52014610397578063881dccf7146103b757600080fd5b80633eaaf86b1161017c5780636cb8606e1161014b5780636cb8606e1461031d5780636ebcf6071461033057806370b966db1461035057806372f702f31461036357600080fd5b80633eaaf86b146102d657806344fed72d146102df5780635729d04e146102f4578063666dc728146102fd57600080fd5b806318160ddd116101b857806318160ddd1461024f578063214789cd14610257578063258722431461028d57806339548624146102c357600080fd5b80628cc262146101de5780630700037d146102045780630c1bd71e14610224575b600080fd5b6101f16101ec366004610d5b565b610512565b6040519081526020015b60405180910390f35b6101f1610212366004610d5b565b60096020526000908152604090205481565b6101f1610232366004610d76565b600f60209081526000928352604080842090915290825290205481565b600b546101f1565b6101f1610265366004610d5b565b336000908152600a602090815260408083206001600160a01b03949094168352929052205490565b6101f161029b366004610d5b565b336000908152600f602090815260408083206001600160a01b03949094168352929052205490565b6101f16102d1366004610d76565b61058f565b6101f1600b5481565b6102f26102ed366004610da9565b610635565b005b6101f1600c5481565b6101f161030b366004610d5b565b60066020526000908152604090205481565b6102f261032b366004610da9565b610860565b6101f161033e366004610d5b565b600e6020526000908152604090205481565b6102f261035e366004610d5b565b610a24565b600154610376906001600160a01b031681565b6040516001600160a01b0390911681526020016101fb565b6101f160025481565b6101f16103a5366004610d5b565b600d6020526000908152604090205481565b6101f16103c5366004610d5b565b6001600160a01b03166000908152600d602052604090205490565b6101f16103ee366004610d5b565b60076020526000908152604090205481565b6101f161040e366004610d5b565b3360009081526005602090815260408083206001600160a01b03949094168352929052205490565b6101f1610444366004610d76565b600860209081526000928352604080842090915290825290205481565b6101f161046f366004610d76565b600560209081526000928352604080842090915290825290205481565b6101f161049a366004610d76565b600a60209081526000928352604080842090915290825290205481565b426101f1565b6101f16104cb366004610d76565b610b7e565b6101f160035481565b336000908152600e60205260409020546101f1565b6101f1610c48565b600054610376906001600160a01b031681565b6101f160045481565b6001600160a01b0381166000908152600960209081526040808320546007909252822054670de0b6b3a764000090610548610c48565b6105529190610de9565b6001600160a01b0385166000908152600e60205260409020546105759190610e00565b61057f9190610e1f565b6105899190610e41565b92915050565b6001600160a01b038083166000818152600a60209081526040808320948616808452948252808320549383526008825280832094835293905291822054670de0b6b3a7640000906105e08686610b7e565b6105ea9190610de9565b6001600160a01b038087166000908152600f602090815260408083209389168352929052205461061a9190610e00565b6106249190610e1f565b61062e9190610e41565b9392505050565b33826106418282610b7e565b6001600160a01b03808316600081815260066020908152604080832095909555928616815260058352838120918152915220429055610680828261058f565b6001600160a01b038084166000818152600a60209081526040808320948716808452948252808320959095556006815284822054928252600881528482209382529290925291812091909155600b80548592906106de908490610de9565b90915550506001600160a01b0384166000908152600d60205260408120805485929061070b908490610de9565b9091555050336000908152600e60205260408120805485929061072f908490610de9565b9091555050336000908152600f602090815260408083206001600160a01b038816845290915281208054859290610767908490610de9565b909155505060015460405163095ea7b360e01b81526001600160a01b038681166004830152602482018690529091169063095ea7b3906044016020604051808303816000875af11580156107bf573d6000803e3d6000fd5b505050506040513d601f19601f820116820180604052508101906107e39190610e59565b5060015460405163a9059cbb60e01b8152336004820152602481018590526001600160a01b039091169063a9059cbb906044016020604051808303816000875af1158015610835573d6000803e3d6000fd5b505050506040513d601f19601f820116820180604052508101906108599190610e59565b5050505050565b338261086c8282610b7e565b6001600160a01b038083166000818152600660209081526040808320959095559286168152600583528381209181529152204290556108ab828261058f565b6001600160a01b038084166000818152600a60209081526040808320948716808452948252808320959095556006815284822054928252600881528482209382529290925291812091909155600b8054859290610909908490610e41565b9091555050336000908152600e60205260408120805485929061092d908490610e41565b90915550506001600160a01b0384166000908152600d60205260408120805485929061095a908490610e41565b9091555050336000908152600f602090815260408083206001600160a01b038816845290915281208054859290610992908490610e41565b90915550506001546040516323b872dd60e01b8152336004820152306024820152604481018590526001600160a01b03909116906323b872dd906064015b6020604051808303816000875af11580156109ef573d6000803e3d6000fd5b505050506040513d601f19601f82011682018060405250810190610a139190610e59565b50610a1e3385610ca6565b50505050565b3381610a308282610b7e565b6001600160a01b03808316600081815260066020908152604080832095909555928616815260058352838120918152915220429055610a6f828261058f565b6001600160a01b038084166000818152600a6020818152604080842088871680865290835281852097909755600682528084205494845260088252808420968452958152858320939093553382528252838120928716815291815282822054600d90915291902054811115610b2a5760405162461bcd60e51b815260206004820152601c60248201527f52657761726420706f6f6c696e67206973206e6f7420456e6f75676800000000604482015260640160405180910390fd5b336000818152600a602090815260408083206001600160a01b03898116855292528083208390559154915163a9059cbb60e01b8152600481019390935260248301849052169063a9059cbb906044016109d0565b6001600160a01b0381166000908152600d60205260408120548103610bbc57506001600160a01b038116600090815260066020526040902054610589565b6001600160a01b038083166000818152600d602090815260408083205460025495891684526005835281842094845293909152902054909190610bff9042610de9565b610c099190610e00565b610c1b90670de0b6b3a7640000610e00565b610c259190610e1f565b6001600160a01b03831660009081526006602052604090205461062e9190610e41565b6000600b54600003610c5b575060045490565b600b54600254600354610c6e9042610de9565b610c789190610e00565b610c8a90670de0b6b3a7640000610e00565b610c949190610e1f565b600454610ca19190610e41565b905090565b8181610cb28282610b7e565b6001600160a01b03808316600081815260066020908152604080832095909555928616815260058352838120918152915220429055610cf1828261058f565b6001600160a01b039283166000818152600a60209081526040808320959096168083529481528582209390935560068352848120549181526008835284812093815292909152919020555050565b80356001600160a01b0381168114610d5657600080fd5b919050565b600060208284031215610d6d57600080fd5b61062e82610d3f565b60008060408385031215610d8957600080fd5b610d9283610d3f565b9150610da060208401610d3f565b90509250929050565b60008060408385031215610dbc57600080fd5b610dc583610d3f565b946020939093013593505050565b634e487b7160e01b600052601160045260246000fd5b600082821015610dfb57610dfb610dd3565b500390565b6000816000190483118215151615610e1a57610e1a610dd3565b500290565b600082610e3c57634e487b7160e01b600052601260045260246000fd5b500490565b60008219821115610e5457610e54610dd3565b500190565b600060208284031215610e6b57600080fd5b8151801515811461062e57600080fdfea264697066735822122076bcec391727e00f5422c205a21ff671c3472007f7f46572e2f6da96109697d764736f6c634300080d0033",
  "immutableReferences": {},
  "source": "// SPDX-License-Identifier: MIT\npragma solidity ^0.8;\n\nimport \"./IERC20.sol\";\n\ncontract StakingNewsRewards {\n    IERC20 public rewardsToken;\n    IERC20 public stakingToken;\n\n    uint public rewardRate = 100;\n    uint public lastUpdateTime;\n    uint public rewardPerTokenStored;\n    mapping(address => mapping(address => uint) ) public sheetLastUpdateTime;\n    mapping(address => uint) public sheetRewardPerTokenStored;\n\n    mapping(address => uint) public userRewardPerTokenPaid;\n    mapping(address => mapping(address => uint) ) public userSheetRewardPerTokenPaid;\n\n    mapping(address => uint) public rewards;\n    mapping(address => mapping(address => uint) ) public sheetRewards;\n\n    uint public _totalSupply;\n    uint public _totalReward;\n\n    mapping(address => uint) public _totalSheetSupply;\n    mapping(address => uint) public _balances;\n    mapping(address => mapping(address => uint) ) public _balancesSheet;\n\n    constructor(address _stakingToken, address _rewardsToken) {\n        stakingToken = IERC20(_stakingToken);\n        rewardsToken = IERC20(_rewardsToken);\n    }\n\n    function rewardPerToken() public view returns (uint) {\n        if (_totalSupply == 0) {\n            return rewardPerTokenStored;\n        }\n        return\n            rewardPerTokenStored +\n            (((block.timestamp - lastUpdateTime) * rewardRate * 1e18) / _totalSupply);\n    }\n\n    function earned(address account) public view returns (uint) {\n        return\n            ((_balances[account] *\n                (rewardPerToken() - userRewardPerTokenPaid[account])) / 1e18) +\n            rewards[account];\n    }\n\n    modifier updateReward(address account) {\n        rewardPerTokenStored = rewardPerToken();\n        lastUpdateTime = block.timestamp;\n\n        rewards[account] = earned(account);\n        userRewardPerTokenPaid[account] = rewardPerTokenStored;\n        _;\n    }\n\n    // ***************************************************************************\n    // ***************************************************************************\n    // ***************************************************************************\n\n    function _beforeTokenTransfer(\n        address from,\n        address sheet\n    ) internal sheetUpdateReward(from, sheet) {}\n\n    function _afterTokenTransfer(\n        address from,\n        address sheet\n    ) internal sheetUpdateReward(from, sheet) {}\n\n    // ***************************************************************************\n    // ***************************************************************************\n    // ***************************************************************************\n\n    function sheetRewardPerToken(address account, address sheet) public view returns (uint) {\n        if (_totalSheetSupply[sheet] == 0) {\n            return sheetRewardPerTokenStored[sheet];\n        }\n        return\n            sheetRewardPerTokenStored[sheet] +\n            (((block.timestamp - sheetLastUpdateTime[account][sheet]) * rewardRate * 1e18) / _totalSheetSupply[sheet]);\n    }\n\n    function sheetEarned(address account, address sheet) public view returns (uint) {\n        return\n            (( _balancesSheet[account][sheet] *\n                (sheetRewardPerToken(account, sheet) - userSheetRewardPerTokenPaid[account][sheet])) / 1e18) +\n            sheetRewards[account][sheet];\n    }\n\n    modifier sheetUpdateReward(address account, address sheet) {\n        sheetRewardPerTokenStored[sheet] = sheetRewardPerToken(account, sheet);\n        sheetLastUpdateTime[account][sheet] = block.timestamp;\n\n        sheetRewards[account][sheet] = sheetEarned(account, sheet);\n        userSheetRewardPerTokenPaid[account][sheet] = sheetRewardPerTokenStored[sheet];\n        _;\n    }\n\n\n    // ***************************************************************************\n    // ***************************************************************************\n    // ***************************************************************************\n    \n    function stakeSheet(address sheet, uint _amount) external sheetUpdateReward(msg.sender, sheet) {\n        _totalSupply += _amount;\n        _balances[msg.sender] += _amount;\n        _totalSheetSupply[sheet] += _amount;\n        _balancesSheet[msg.sender][sheet] += _amount;\n\n        // stakingToken.transferFrom(msg.sender, sheet, _amount);\n        stakingToken.transferFrom(msg.sender, address(this), _amount);\n\n        _afterTokenTransfer(msg.sender, sheet);\n        \n    }\n\n    function withdrawSheet(address sheet, uint _amount) external sheetUpdateReward(msg.sender, sheet) {\n        _totalSupply -= _amount;\n        _totalSheetSupply[sheet] -= _amount;\n        _balances[msg.sender] -= _amount;\n        _balancesSheet[msg.sender][sheet] -= _amount;\n\n        stakingToken.approve(sheet, _amount);\n        // stakingToken.transferFrom(sheet, msg.sender, _amount);\n        stakingToken.transfer(msg.sender, _amount);\n\n    }\n\n    function getRewardSheet(address sheet) external sheetUpdateReward(msg.sender, sheet) {\n        // uint reward = rewards[msg.sender];\n        // rewardsToken.transfer(msg.sender, reward);\n\n        uint reward = sheetRewards[msg.sender][sheet];\n        require(_totalSheetSupply[sheet] >= reward, \"Reward pooling is not Enough\");\n        sheetRewards[msg.sender][sheet] = 0;\n        // rewardsToken.transferFrom(sheet, msg.sender, reward);\n        \n        rewardsToken.transfer(msg.sender, reward);\n        _afterTokenTransfer(msg.sender, sheet);\n\n    }\n\n    // ***************************************************************************\n    // ***************************************************************************\n    // ***************************************************************************\n\n\n    function totalSupply()\n        public\n        view\n        returns (uint256)\n    {\n        return _totalSupply;\n    }\n\n    function balanceStakeOf()\n        public\n        view\n        returns (uint256)\n    {\n        return _balances[msg.sender];\n    }\n\n\n    function totalSupplySheet(address sheet)\n        public\n        view\n        returns (uint256)\n    {\n        return _totalSheetSupply[sheet];\n    }\n\n    function balanceStakeOfSheet(address sheet)\n        public\n        view\n        returns (uint256)\n    {\n        return _balancesSheet[msg.sender][sheet];\n    }\n\n    function rewardSheet(address sheet)\n        public\n        view\n        returns (uint256) \n    {\n        return sheetRewards[msg.sender][sheet];\n        // return sheetEarned(msg.sender, sheet);\n    }\n\n    function TimeSpending(address sheet)\n        public\n        view\n        returns (uint256) \n    {\n        // return sheetRewards[msg.sender][sheet];\n        return sheetLastUpdateTime[msg.sender][sheet];\n    }\n\n    function TimeNow()\n        public\n        view\n        returns (uint256) \n    {\n        // return sheetRewards[msg.sender][sheet];\n        return block.timestamp;\n    }\n\n}",
  "sourcePath": "/Users/sunnypdater/Project/sunnypdater/DApps/contracts/stakingNewsReward.sol",
  "compiler": {
    "name": "solc",
    "version": "0.8.13+commit.abaa5c0e.Emscripten.clang"
  },
  "schemaVersion": "3.4.6",
  "updatedAt": "2022-05-12T17:17:22.122Z",
  "networkType": "ethereum",
  "devdoc": {
    "kind": "dev",
    "methods": {},
    "version": 1
  },
  "userdoc": {
    "kind": "user",
    "methods": {},
    "version": 1
  }
}